{
	"Counter_for_0_8_27.sol": {
		"Counter": {
			"abi": [
				{
					"inputs": [],
					"name": "count",
					"outputs": [
						{
							"internalType": "uint256",
							"name": "",
							"type": "uint256"
						}
					],
					"stateMutability": "view",
					"type": "function"
				},
				{
					"inputs": [],
					"name": "increment",
					"outputs": [],
					"stateMutability": "nonpayable",
					"type": "function"
				},
				{
					"inputs": [],
					"name": "reset",
					"outputs": [],
					"stateMutability": "nonpayable",
					"type": "function"
				}
			],
			"devdoc": {
				"kind": "dev",
				"methods": {},
				"version": 1
			},
			"evm": {
				"assembly": "    /* \"Counter_for_0_8_27.sol\":61:485  contract Counter {... */\n  mstore(0x40, 0x80)\n  callvalue\n  dup1\n  iszero\n  tag_1\n  jumpi\n  revert(0x00, 0x00)\ntag_1:\n  pop\n  dataSize(sub_0)\n  dup1\n  dataOffset(sub_0)\n  0x00\n  codecopy\n  0x00\n  return\nstop\n\nsub_0: assembly {\n        /* \"Counter_for_0_8_27.sol\":61:485  contract Counter {... */\n      mstore(0x40, 0x80)\n      callvalue\n      dup1\n      iszero\n      tag_1\n      jumpi\n      revert(0x00, 0x00)\n    tag_1:\n      pop\n      jumpi(tag_2, lt(calldatasize, 0x04))\n      shr(0xe0, calldataload(0x00))\n      dup1\n      0x06661abd\n      eq\n      tag_3\n      jumpi\n      dup1\n      0xd09de08a\n      eq\n      tag_4\n      jumpi\n      dup1\n      0xd826f88f\n      eq\n      tag_5\n      jumpi\n    tag_2:\n      revert(0x00, 0x00)\n        /* \"Counter_for_0_8_27.sol\":85:105  uint256 public count */\n    tag_3:\n      tag_6\n      tag_7\n      jump\t// in\n    tag_6:\n      mload(0x40)\n      tag_8\n      swap2\n      swap1\n      tag_9\n      jump\t// in\n    tag_8:\n      mload(0x40)\n      dup1\n      swap2\n      sub\n      swap1\n      return\n        /* \"Counter_for_0_8_27.sol\":247:373  function increment() public {... */\n    tag_4:\n      tag_10\n      tag_11\n      jump\t// in\n    tag_10:\n      stop\n        /* \"Counter_for_0_8_27.sol\":430:482  function reset() public {... */\n    tag_5:\n      tag_12\n      tag_13\n      jump\t// in\n    tag_12:\n      stop\n        /* \"Counter_for_0_8_27.sol\":85:105  uint256 public count */\n    tag_7:\n      sload(0x00)\n      dup2\n      jump\t// out\n        /* \"Counter_for_0_8_27.sol\":247:373  function increment() public {... */\n    tag_11:\n        /* \"Counter_for_0_8_27.sol\":302:304  51 */\n      0x33\n        /* \"Counter_for_0_8_27.sol\":294:299  count */\n      sload(0x00)\n        /* \"Counter_for_0_8_27.sol\":294:304  count < 51 */\n      lt\n        /* \"Counter_for_0_8_27.sol\":286:347  require(count < 51, \"Compteur: La limite de 51 est atteinte\") */\n      tag_15\n      jumpi\n      mload(0x40)\n      0x08c379a000000000000000000000000000000000000000000000000000000000\n      dup2\n      mstore\n      0x04\n      add\n      tag_16\n      swap1\n      tag_17\n      jump\t// in\n    tag_16:\n      mload(0x40)\n      dup1\n      swap2\n      sub\n      swap1\n      revert\n    tag_15:\n        /* \"Counter_for_0_8_27.sol\":358:363  count */\n      0x00\n      0x00\n        /* \"Counter_for_0_8_27.sol\":358:365  count++ */\n      dup2\n      sload\n      dup1\n      swap3\n      swap2\n      swap1\n      tag_18\n      swap1\n      tag_19\n      jump\t// in\n    tag_18:\n      swap2\n      swap1\n      pop\n      sstore\n      pop\n        /* \"Counter_for_0_8_27.sol\":247:373  function increment() public {... */\n      jump\t// out\n        /* \"Counter_for_0_8_27.sol\":430:482  function reset() public {... */\n    tag_13:\n        /* \"Counter_for_0_8_27.sol\":473:474  0 */\n      0x00\n        /* \"Counter_for_0_8_27.sol\":465:470  count */\n      0x00\n        /* \"Counter_for_0_8_27.sol\":465:474  count = 0 */\n      dup2\n      swap1\n      sstore\n      pop\n        /* \"Counter_for_0_8_27.sol\":430:482  function reset() public {... */\n      jump\t// out\n        /* \"#utility.yul\":7:84   */\n    tag_21:\n        /* \"#utility.yul\":44:51   */\n      0x00\n        /* \"#utility.yul\":73:78   */\n      dup2\n        /* \"#utility.yul\":62:78   */\n      swap1\n      pop\n        /* \"#utility.yul\":7:84   */\n      swap2\n      swap1\n      pop\n      jump\t// out\n        /* \"#utility.yul\":90:208   */\n    tag_22:\n        /* \"#utility.yul\":177:201   */\n      tag_30\n        /* \"#utility.yul\":195:200   */\n      dup2\n        /* \"#utility.yul\":177:201   */\n      tag_21\n      jump\t// in\n    tag_30:\n        /* \"#utility.yul\":172:175   */\n      dup3\n        /* \"#utility.yul\":165:202   */\n      mstore\n        /* \"#utility.yul\":90:208   */\n      pop\n      pop\n      jump\t// out\n        /* \"#utility.yul\":214:436   */\n    tag_9:\n        /* \"#utility.yul\":307:311   */\n      0x00\n        /* \"#utility.yul\":345:347   */\n      0x20\n        /* \"#utility.yul\":334:343   */\n      dup3\n        /* \"#utility.yul\":330:348   */\n      add\n        /* \"#utility.yul\":322:348   */\n      swap1\n      pop\n        /* \"#utility.yul\":358:429   */\n      tag_32\n        /* \"#utility.yul\":426:427   */\n      0x00\n        /* \"#utility.yul\":415:424   */\n      dup4\n        /* \"#utility.yul\":411:428   */\n      add\n        /* \"#utility.yul\":402:408   */\n      dup5\n        /* \"#utility.yul\":358:429   */\n      tag_22\n      jump\t// in\n    tag_32:\n        /* \"#utility.yul\":214:436   */\n      swap3\n      swap2\n      pop\n      pop\n      jump\t// out\n        /* \"#utility.yul\":442:611   */\n    tag_23:\n        /* \"#utility.yul\":526:537   */\n      0x00\n        /* \"#utility.yul\":560:566   */\n      dup3\n        /* \"#utility.yul\":555:558   */\n      dup3\n        /* \"#utility.yul\":548:567   */\n      mstore\n        /* \"#utility.yul\":600:604   */\n      0x20\n        /* \"#utility.yul\":595:598   */\n      dup3\n        /* \"#utility.yul\":591:605   */\n      add\n        /* \"#utility.yul\":576:605   */\n      swap1\n      pop\n        /* \"#utility.yul\":442:611   */\n      swap3\n      swap2\n      pop\n      pop\n      jump\t// out\n        /* \"#utility.yul\":617:842   */\n    tag_24:\n        /* \"#utility.yul\":757:791   */\n      0x436f6d70746575723a204c61206c696d69746520646520353120657374206174\n        /* \"#utility.yul\":753:754   */\n      0x00\n        /* \"#utility.yul\":745:751   */\n      dup3\n        /* \"#utility.yul\":741:755   */\n      add\n        /* \"#utility.yul\":734:792   */\n      mstore\n        /* \"#utility.yul\":826:834   */\n      0x7465696e74650000000000000000000000000000000000000000000000000000\n        /* \"#utility.yul\":821:823   */\n      0x20\n        /* \"#utility.yul\":813:819   */\n      dup3\n        /* \"#utility.yul\":809:824   */\n      add\n        /* \"#utility.yul\":802:835   */\n      mstore\n        /* \"#utility.yul\":617:842   */\n      pop\n      jump\t// out\n        /* \"#utility.yul\":848:1214   */\n    tag_25:\n        /* \"#utility.yul\":990:993   */\n      0x00\n        /* \"#utility.yul\":1011:1078   */\n      tag_36\n        /* \"#utility.yul\":1075:1077   */\n      0x26\n        /* \"#utility.yul\":1070:1073   */\n      dup4\n        /* \"#utility.yul\":1011:1078   */\n      tag_23\n      jump\t// in\n    tag_36:\n        /* \"#utility.yul\":1004:1078   */\n      swap2\n      pop\n        /* \"#utility.yul\":1087:1180   */\n      tag_37\n        /* \"#utility.yul\":1176:1179   */\n      dup3\n        /* \"#utility.yul\":1087:1180   */\n      tag_24\n      jump\t// in\n    tag_37:\n        /* \"#utility.yul\":1205:1207   */\n      0x40\n        /* \"#utility.yul\":1200:1203   */\n      dup3\n        /* \"#utility.yul\":1196:1208   */\n      add\n        /* \"#utility.yul\":1189:1208   */\n      swap1\n      pop\n        /* \"#utility.yul\":848:1214   */\n      swap2\n      swap1\n      pop\n      jump\t// out\n        /* \"#utility.yul\":1220:1639   */\n    tag_17:\n        /* \"#utility.yul\":1386:1390   */\n      0x00\n        /* \"#utility.yul\":1424:1426   */\n      0x20\n        /* \"#utility.yul\":1413:1422   */\n      dup3\n        /* \"#utility.yul\":1409:1427   */\n      add\n        /* \"#utility.yul\":1401:1427   */\n      swap1\n      pop\n        /* \"#utility.yul\":1473:1482   */\n      dup2\n        /* \"#utility.yul\":1467:1471   */\n      dup2\n        /* \"#utility.yul\":1463:1483   */\n      sub\n        /* \"#utility.yul\":1459:1460   */\n      0x00\n        /* \"#utility.yul\":1448:1457   */\n      dup4\n        /* \"#utility.yul\":1444:1461   */\n      add\n        /* \"#utility.yul\":1437:1484   */\n      mstore\n        /* \"#utility.yul\":1501:1632   */\n      tag_39\n        /* \"#utility.yul\":1627:1631   */\n      dup2\n        /* \"#utility.yul\":1501:1632   */\n      tag_25\n      jump\t// in\n    tag_39:\n        /* \"#utility.yul\":1493:1632   */\n      swap1\n      pop\n        /* \"#utility.yul\":1220:1639   */\n      swap2\n      swap1\n      pop\n      jump\t// out\n        /* \"#utility.yul\":1645:1825   */\n    tag_26:\n        /* \"#utility.yul\":1693:1770   */\n      0x4e487b7100000000000000000000000000000000000000000000000000000000\n        /* \"#utility.yul\":1690:1691   */\n      0x00\n        /* \"#utility.yul\":1683:1771   */\n      mstore\n        /* \"#utility.yul\":1790:1794   */\n      0x11\n        /* \"#utility.yul\":1787:1788   */\n      0x04\n        /* \"#utility.yul\":1780:1795   */\n      mstore\n        /* \"#utility.yul\":1814:1818   */\n      0x24\n        /* \"#utility.yul\":1811:1812   */\n      0x00\n        /* \"#utility.yul\":1804:1819   */\n      revert\n        /* \"#utility.yul\":1831:2064   */\n    tag_19:\n        /* \"#utility.yul\":1870:1873   */\n      0x00\n        /* \"#utility.yul\":1893:1917   */\n      tag_42\n        /* \"#utility.yul\":1911:1916   */\n      dup3\n        /* \"#utility.yul\":1893:1917   */\n      tag_21\n      jump\t// in\n    tag_42:\n        /* \"#utility.yul\":1884:1917   */\n      swap2\n      pop\n        /* \"#utility.yul\":1939:2005   */\n      0xffffffffffffffffffffffffffffffffffffffffffffffffffffffffffffffff\n        /* \"#utility.yul\":1932:1937   */\n      dup3\n        /* \"#utility.yul\":1929:2006   */\n      sub\n        /* \"#utility.yul\":1926:2029   */\n      tag_43\n      jumpi\n        /* \"#utility.yul\":2009:2027   */\n      tag_44\n      tag_26\n      jump\t// in\n    tag_44:\n        /* \"#utility.yul\":1926:2029   */\n    tag_43:\n        /* \"#utility.yul\":2056:2057   */\n      0x01\n        /* \"#utility.yul\":2049:2054   */\n      dup3\n        /* \"#utility.yul\":2045:2058   */\n      add\n        /* \"#utility.yul\":2038:2058   */\n      swap1\n      pop\n        /* \"#utility.yul\":1831:2064   */\n      swap2\n      swap1\n      pop\n      jump\t// out\n\n    auxdata: 0xa2646970667358221220234df1b6bafd2243ef3dfc0c48221e6f43080b151186e5cd21d7c9fed1efb8ce64736f6c634300081b0033\n}\n",
				"bytecode": {
					"linkReferences": {},
					"object": "6080604052348015600e575f5ffd5b506102578061001c5f395ff3fe608060405234801561000f575f5ffd5b506004361061003f575f3560e01c806306661abd14610043578063d09de08a14610061578063d826f88f1461006b575b5f5ffd5b61004b610075565b60405161005891906100f6565b60405180910390f35b61006961007a565b005b6100736100d6565b005b5f5481565b60335f54106100be576040517f08c379a00000000000000000000000000000000000000000000000000000000081526004016100b59061018f565b60405180910390fd5b5f5f8154809291906100cf906101da565b9190505550565b5f5f81905550565b5f819050919050565b6100f0816100de565b82525050565b5f6020820190506101095f8301846100e7565b92915050565b5f82825260208201905092915050565b7f436f6d70746575723a204c61206c696d697465206465203531206573742061745f8201527f7465696e74650000000000000000000000000000000000000000000000000000602082015250565b5f61017960268361010f565b91506101848261011f565b604082019050919050565b5f6020820190508181035f8301526101a68161016d565b9050919050565b7f4e487b71000000000000000000000000000000000000000000000000000000005f52601160045260245ffd5b5f6101e4826100de565b91507fffffffffffffffffffffffffffffffffffffffffffffffffffffffffffffffff8203610216576102156101ad565b5b60018201905091905056fea2646970667358221220234df1b6bafd2243ef3dfc0c48221e6f43080b151186e5cd21d7c9fed1efb8ce64736f6c634300081b0033",
					"opcodes": "PUSH1 0x80 PUSH1 0x40 MSTORE CALLVALUE DUP1 ISZERO PUSH1 0xE JUMPI PUSH0 PUSH0 REVERT JUMPDEST POP PUSH2 0x257 DUP1 PUSH2 0x1C PUSH0 CODECOPY PUSH0 RETURN INVALID PUSH1 0x80 PUSH1 0x40 MSTORE CALLVALUE DUP1 ISZERO PUSH2 0xF JUMPI PUSH0 PUSH0 REVERT JUMPDEST POP PUSH1 0x4 CALLDATASIZE LT PUSH2 0x3F JUMPI PUSH0 CALLDATALOAD PUSH1 0xE0 SHR DUP1 PUSH4 0x6661ABD EQ PUSH2 0x43 JUMPI DUP1 PUSH4 0xD09DE08A EQ PUSH2 0x61 JUMPI DUP1 PUSH4 0xD826F88F EQ PUSH2 0x6B JUMPI JUMPDEST PUSH0 PUSH0 REVERT JUMPDEST PUSH2 0x4B PUSH2 0x75 JUMP JUMPDEST PUSH1 0x40 MLOAD PUSH2 0x58 SWAP2 SWAP1 PUSH2 0xF6 JUMP JUMPDEST PUSH1 0x40 MLOAD DUP1 SWAP2 SUB SWAP1 RETURN JUMPDEST PUSH2 0x69 PUSH2 0x7A JUMP JUMPDEST STOP JUMPDEST PUSH2 0x73 PUSH2 0xD6 JUMP JUMPDEST STOP JUMPDEST PUSH0 SLOAD DUP2 JUMP JUMPDEST PUSH1 0x33 PUSH0 SLOAD LT PUSH2 0xBE JUMPI PUSH1 0x40 MLOAD PUSH32 0x8C379A000000000000000000000000000000000000000000000000000000000 DUP2 MSTORE PUSH1 0x4 ADD PUSH2 0xB5 SWAP1 PUSH2 0x18F JUMP JUMPDEST PUSH1 0x40 MLOAD DUP1 SWAP2 SUB SWAP1 REVERT JUMPDEST PUSH0 PUSH0 DUP2 SLOAD DUP1 SWAP3 SWAP2 SWAP1 PUSH2 0xCF SWAP1 PUSH2 0x1DA JUMP JUMPDEST SWAP2 SWAP1 POP SSTORE POP JUMP JUMPDEST PUSH0 PUSH0 DUP2 SWAP1 SSTORE POP JUMP JUMPDEST PUSH0 DUP2 SWAP1 POP SWAP2 SWAP1 POP JUMP JUMPDEST PUSH2 0xF0 DUP2 PUSH2 0xDE JUMP JUMPDEST DUP3 MSTORE POP POP JUMP JUMPDEST PUSH0 PUSH1 0x20 DUP3 ADD SWAP1 POP PUSH2 0x109 PUSH0 DUP4 ADD DUP5 PUSH2 0xE7 JUMP JUMPDEST SWAP3 SWAP2 POP POP JUMP JUMPDEST PUSH0 DUP3 DUP3 MSTORE PUSH1 0x20 DUP3 ADD SWAP1 POP SWAP3 SWAP2 POP POP JUMP JUMPDEST PUSH32 0x436F6D70746575723A204C61206C696D69746520646520353120657374206174 PUSH0 DUP3 ADD MSTORE PUSH32 0x7465696E74650000000000000000000000000000000000000000000000000000 PUSH1 0x20 DUP3 ADD MSTORE POP JUMP JUMPDEST PUSH0 PUSH2 0x179 PUSH1 0x26 DUP4 PUSH2 0x10F JUMP JUMPDEST SWAP2 POP PUSH2 0x184 DUP3 PUSH2 0x11F JUMP JUMPDEST PUSH1 0x40 DUP3 ADD SWAP1 POP SWAP2 SWAP1 POP JUMP JUMPDEST PUSH0 PUSH1 0x20 DUP3 ADD SWAP1 POP DUP2 DUP2 SUB PUSH0 DUP4 ADD MSTORE PUSH2 0x1A6 DUP2 PUSH2 0x16D JUMP JUMPDEST SWAP1 POP SWAP2 SWAP1 POP JUMP JUMPDEST PUSH32 0x4E487B7100000000000000000000000000000000000000000000000000000000 PUSH0 MSTORE PUSH1 0x11 PUSH1 0x4 MSTORE PUSH1 0x24 PUSH0 REVERT JUMPDEST PUSH0 PUSH2 0x1E4 DUP3 PUSH2 0xDE JUMP JUMPDEST SWAP2 POP PUSH32 0xFFFFFFFFFFFFFFFFFFFFFFFFFFFFFFFFFFFFFFFFFFFFFFFFFFFFFFFFFFFFFFFF DUP3 SUB PUSH2 0x216 JUMPI PUSH2 0x215 PUSH2 0x1AD JUMP JUMPDEST JUMPDEST PUSH1 0x1 DUP3 ADD SWAP1 POP SWAP2 SWAP1 POP JUMP INVALID LOG2 PUSH5 0x6970667358 0x22 SLT KECCAK256 0x23 0x4D CALL 0xB6 0xBA REVERT 0x22 NUMBER 0xEF RETURNDATASIZE 0xFC 0xC BASEFEE 0x22 0x1E PUSH16 0x43080B151186E5CD21D7C9FED1EFB8CE PUSH5 0x736F6C6343 STOP ADDMOD SHL STOP CALLER "
				},
				"gasEstimates": {
					"creation": {
						"codeDepositCost": "119800",
						"executionCost": "163",
						"totalCost": "119963"
					},
					"external": {
						"count()": "2402",
						"increment()": "26618",
						"reset()": "5177"
					}
				},
				"methodIdentifiers": {
					"count()": "06661abd",
					"increment()": "d09de08a",
					"reset()": "d826f88f"
				}
			},
			"storageLayout": {
				"storage": [
					{
						"astId": 3,
						"contract": "Counter_for_0_8_27.sol:Counter",
						"label": "count",
						"offset": 0,
						"slot": "0",
						"type": "t_uint256"
					}
				],
				"types": {
					"t_uint256": {
						"encoding": "inplace",
						"label": "uint256",
						"numberOfBytes": "32"
					}
				}
			},
			"userdoc": {
				"kind": "user",
				"methods": {
					"increment()": {
						"notice": "Incrémente le compteur jusqu'à un maximum de 51."
					},
					"reset()": {
						"notice": "Réinitialise le compteur à 0."
					}
				},
				"version": 1
			}
		}
	}
}