{
	"Counter_For_Linea.sol": {
		"Counter": {
			"abi": [
				{
					"inputs": [],
					"name": "count",
					"outputs": [
						{
							"internalType": "uint256",
							"name": "",
							"type": "uint256"
						}
					],
					"stateMutability": "view",
					"type": "function"
				},
				{
					"inputs": [],
					"name": "increment",
					"outputs": [],
					"stateMutability": "nonpayable",
					"type": "function"
				},
				{
					"inputs": [],
					"name": "reset",
					"outputs": [],
					"stateMutability": "nonpayable",
					"type": "function"
				}
			],
			"devdoc": {
				"kind": "dev",
				"methods": {},
				"version": 1
			},
			"evm": {
				"assembly": "    /* \"Counter_For_Linea.sol\":60:441  contract Counter {\r... */\n  mstore(0x40, 0x80)\n  callvalue\n  dup1\n  iszero\n  tag_1\n  jumpi\n  0x00\n  dup1\n  revert\ntag_1:\n  pop\n  dataSize(sub_0)\n  dup1\n  dataOffset(sub_0)\n  0x00\n  codecopy\n  0x00\n  return\nstop\n\nsub_0: assembly {\n        /* \"Counter_For_Linea.sol\":60:441  contract Counter {\r... */\n      mstore(0x40, 0x80)\n      callvalue\n      dup1\n      iszero\n      tag_1\n      jumpi\n      0x00\n      dup1\n      revert\n    tag_1:\n      pop\n      jumpi(tag_2, lt(calldatasize, 0x04))\n      shr(0xe0, calldataload(0x00))\n      dup1\n      0x06661abd\n      eq\n      tag_3\n      jumpi\n      dup1\n      0xd09de08a\n      eq\n      tag_4\n      jumpi\n      dup1\n      0xd826f88f\n      eq\n      tag_5\n      jumpi\n    tag_2:\n      0x00\n      dup1\n      revert\n        /* \"Counter_For_Linea.sol\":84:104  uint256 public count */\n    tag_3:\n      tag_6\n      tag_7\n      jump\t// in\n    tag_6:\n      mload(0x40)\n      tag_8\n      swap2\n      swap1\n      tag_9\n      jump\t// in\n    tag_8:\n      mload(0x40)\n      dup1\n      swap2\n      sub\n      swap1\n      return\n        /* \"Counter_For_Linea.sol\":196:325  function increment() public {\r... */\n    tag_4:\n      tag_10\n      tag_11\n      jump\t// in\n    tag_10:\n      stop\n        /* \"Counter_For_Linea.sol\":386:438  function reset() public {\r... */\n    tag_5:\n      tag_12\n      tag_13\n      jump\t// in\n    tag_12:\n      stop\n        /* \"Counter_For_Linea.sol\":84:104  uint256 public count */\n    tag_7:\n      sload(0x00)\n      dup2\n      jump\t// out\n        /* \"Counter_For_Linea.sol\":196:325  function increment() public {\r... */\n    tag_11:\n        /* \"Counter_For_Linea.sol\":251:253  51 */\n      0x33\n        /* \"Counter_For_Linea.sol\":243:248  count */\n      sload(0x00)\n        /* \"Counter_For_Linea.sol\":243:253  count < 51 */\n      lt\n        /* \"Counter_For_Linea.sol\":235:299  require(count < 51, \"Compteur atteint la limite maximale de 51\") */\n      tag_15\n      jumpi\n      mload(0x40)\n      0x08c379a000000000000000000000000000000000000000000000000000000000\n      dup2\n      mstore\n      0x04\n      add\n      tag_16\n      swap1\n      tag_17\n      jump\t// in\n    tag_16:\n      mload(0x40)\n      dup1\n      swap2\n      sub\n      swap1\n      revert\n    tag_15:\n        /* \"Counter_For_Linea.sol\":310:315  count */\n      0x00\n      dup1\n        /* \"Counter_For_Linea.sol\":310:317  count++ */\n      dup2\n      sload\n      dup1\n      swap3\n      swap2\n      swap1\n      tag_18\n      swap1\n      tag_19\n      jump\t// in\n    tag_18:\n      swap2\n      swap1\n      pop\n      sstore\n      pop\n        /* \"Counter_For_Linea.sol\":196:325  function increment() public {\r... */\n      jump\t// out\n        /* \"Counter_For_Linea.sol\":386:438  function reset() public {\r... */\n    tag_13:\n        /* \"Counter_For_Linea.sol\":429:430  0 */\n      0x00\n        /* \"Counter_For_Linea.sol\":421:426  count */\n      dup1\n        /* \"Counter_For_Linea.sol\":421:430  count = 0 */\n      dup2\n      swap1\n      sstore\n      pop\n        /* \"Counter_For_Linea.sol\":386:438  function reset() public {\r... */\n      jump\t// out\n        /* \"#utility.yul\":7:380   */\n    tag_22:\n      0x00\n        /* \"#utility.yul\":170:237   */\n      tag_24\n        /* \"#utility.yul\":234:236   */\n      0x29\n        /* \"#utility.yul\":229:232   */\n      dup4\n        /* \"#utility.yul\":170:237   */\n      tag_25\n      jump\t// in\n    tag_24:\n        /* \"#utility.yul\":163:237   */\n      swap2\n      pop\n        /* \"#utility.yul\":267:301   */\n      0x436f6d70746575722061747465696e74206c61206c696d697465206d6178696d\n        /* \"#utility.yul\":263:264   */\n      0x00\n        /* \"#utility.yul\":258:261   */\n      dup4\n        /* \"#utility.yul\":254:265   */\n      add\n        /* \"#utility.yul\":247:302   */\n      mstore\n        /* \"#utility.yul\":333:344   */\n      0x616c652064652035310000000000000000000000000000000000000000000000\n        /* \"#utility.yul\":328:330   */\n      0x20\n        /* \"#utility.yul\":323:326   */\n      dup4\n        /* \"#utility.yul\":319:331   */\n      add\n        /* \"#utility.yul\":312:345   */\n      mstore\n        /* \"#utility.yul\":371:373   */\n      0x40\n        /* \"#utility.yul\":366:369   */\n      dup3\n        /* \"#utility.yul\":362:374   */\n      add\n        /* \"#utility.yul\":355:374   */\n      swap1\n      pop\n        /* \"#utility.yul\":153:380   */\n      swap2\n      swap1\n      pop\n      jump\t// out\n        /* \"#utility.yul\":386:504   */\n    tag_26:\n        /* \"#utility.yul\":473:497   */\n      tag_28\n        /* \"#utility.yul\":491:496   */\n      dup2\n        /* \"#utility.yul\":473:497   */\n      tag_29\n      jump\t// in\n    tag_28:\n        /* \"#utility.yul\":468:471   */\n      dup3\n        /* \"#utility.yul\":461:498   */\n      mstore\n        /* \"#utility.yul\":451:504   */\n      pop\n      pop\n      jump\t// out\n        /* \"#utility.yul\":510:929   */\n    tag_17:\n      0x00\n        /* \"#utility.yul\":714:716   */\n      0x20\n        /* \"#utility.yul\":703:712   */\n      dup3\n        /* \"#utility.yul\":699:717   */\n      add\n        /* \"#utility.yul\":691:717   */\n      swap1\n      pop\n        /* \"#utility.yul\":763:772   */\n      dup2\n        /* \"#utility.yul\":757:761   */\n      dup2\n        /* \"#utility.yul\":753:773   */\n      sub\n        /* \"#utility.yul\":749:750   */\n      0x00\n        /* \"#utility.yul\":738:747   */\n      dup4\n        /* \"#utility.yul\":734:751   */\n      add\n        /* \"#utility.yul\":727:774   */\n      mstore\n        /* \"#utility.yul\":791:922   */\n      tag_31\n        /* \"#utility.yul\":917:921   */\n      dup2\n        /* \"#utility.yul\":791:922   */\n      tag_22\n      jump\t// in\n    tag_31:\n        /* \"#utility.yul\":783:922   */\n      swap1\n      pop\n        /* \"#utility.yul\":681:929   */\n      swap2\n      swap1\n      pop\n      jump\t// out\n        /* \"#utility.yul\":935:1157   */\n    tag_9:\n      0x00\n        /* \"#utility.yul\":1066:1068   */\n      0x20\n        /* \"#utility.yul\":1055:1064   */\n      dup3\n        /* \"#utility.yul\":1051:1069   */\n      add\n        /* \"#utility.yul\":1043:1069   */\n      swap1\n      pop\n        /* \"#utility.yul\":1079:1150   */\n      tag_33\n        /* \"#utility.yul\":1147:1148   */\n      0x00\n        /* \"#utility.yul\":1136:1145   */\n      dup4\n        /* \"#utility.yul\":1132:1149   */\n      add\n        /* \"#utility.yul\":1123:1129   */\n      dup5\n        /* \"#utility.yul\":1079:1150   */\n      tag_26\n      jump\t// in\n    tag_33:\n        /* \"#utility.yul\":1033:1157   */\n      swap3\n      swap2\n      pop\n      pop\n      jump\t// out\n        /* \"#utility.yul\":1163:1332   */\n    tag_25:\n      0x00\n        /* \"#utility.yul\":1281:1287   */\n      dup3\n        /* \"#utility.yul\":1276:1279   */\n      dup3\n        /* \"#utility.yul\":1269:1288   */\n      mstore\n        /* \"#utility.yul\":1321:1325   */\n      0x20\n        /* \"#utility.yul\":1316:1319   */\n      dup3\n        /* \"#utility.yul\":1312:1326   */\n      add\n        /* \"#utility.yul\":1297:1326   */\n      swap1\n      pop\n        /* \"#utility.yul\":1259:1332   */\n      swap3\n      swap2\n      pop\n      pop\n      jump\t// out\n        /* \"#utility.yul\":1338:1415   */\n    tag_29:\n      0x00\n        /* \"#utility.yul\":1404:1409   */\n      dup2\n        /* \"#utility.yul\":1393:1409   */\n      swap1\n      pop\n        /* \"#utility.yul\":1383:1415   */\n      swap2\n      swap1\n      pop\n      jump\t// out\n        /* \"#utility.yul\":1421:1654   */\n    tag_19:\n      0x00\n        /* \"#utility.yul\":1483:1507   */\n      tag_37\n        /* \"#utility.yul\":1501:1506   */\n      dup3\n        /* \"#utility.yul\":1483:1507   */\n      tag_29\n      jump\t// in\n    tag_37:\n        /* \"#utility.yul\":1474:1507   */\n      swap2\n      pop\n        /* \"#utility.yul\":1529:1595   */\n      0xffffffffffffffffffffffffffffffffffffffffffffffffffffffffffffffff\n        /* \"#utility.yul\":1522:1527   */\n      dup3\n        /* \"#utility.yul\":1519:1596   */\n      eq\n        /* \"#utility.yul\":1516:1518   */\n      iszero\n      tag_38\n      jumpi\n        /* \"#utility.yul\":1599:1617   */\n      tag_39\n      tag_40\n      jump\t// in\n    tag_39:\n        /* \"#utility.yul\":1516:1518   */\n    tag_38:\n        /* \"#utility.yul\":1646:1647   */\n      0x01\n        /* \"#utility.yul\":1639:1644   */\n      dup3\n        /* \"#utility.yul\":1635:1648   */\n      add\n        /* \"#utility.yul\":1628:1648   */\n      swap1\n      pop\n        /* \"#utility.yul\":1464:1654   */\n      swap2\n      swap1\n      pop\n      jump\t// out\n        /* \"#utility.yul\":1660:1840   */\n    tag_40:\n        /* \"#utility.yul\":1708:1785   */\n      0x4e487b7100000000000000000000000000000000000000000000000000000000\n        /* \"#utility.yul\":1705:1706   */\n      0x00\n        /* \"#utility.yul\":1698:1786   */\n      mstore\n        /* \"#utility.yul\":1805:1809   */\n      0x11\n        /* \"#utility.yul\":1802:1803   */\n      0x04\n        /* \"#utility.yul\":1795:1810   */\n      mstore\n        /* \"#utility.yul\":1829:1833   */\n      0x24\n        /* \"#utility.yul\":1826:1827   */\n      0x00\n        /* \"#utility.yul\":1819:1834   */\n      revert\n\n    auxdata: 0xa2646970667358221220f1485f7334b109113f7d68eba8b4101feb9b190be4ec89b14711ac5f3ca9d71c64736f6c63430008000033\n}\n",
				"bytecode": {
					"linkReferences": {},
					"object": "608060405234801561001057600080fd5b5061025e806100206000396000f3fe608060405234801561001057600080fd5b50600436106100415760003560e01c806306661abd14610046578063d09de08a14610064578063d826f88f1461006e575b600080fd5b61004e610078565b60405161005b919061017a565b60405180910390f35b61006c61007e565b005b6100766100dc565b005b60005481565b6033600054106100c3576040517f08c379a00000000000000000000000000000000000000000000000000000000081526004016100ba9061015a565b60405180910390fd5b6000808154809291906100d5906101b0565b9190505550565b60008081905550565b60006100f2602983610195565b91507f436f6d70746575722061747465696e74206c61206c696d697465206d6178696d60008301527f616c6520646520353100000000000000000000000000000000000000000000006020830152604082019050919050565b610154816101a6565b82525050565b60006020820190508181036000830152610173816100e5565b9050919050565b600060208201905061018f600083018461014b565b92915050565b600082825260208201905092915050565b6000819050919050565b60006101bb826101a6565b91507fffffffffffffffffffffffffffffffffffffffffffffffffffffffffffffffff8214156101ee576101ed6101f9565b5b600182019050919050565b7f4e487b7100000000000000000000000000000000000000000000000000000000600052601160045260246000fdfea2646970667358221220f1485f7334b109113f7d68eba8b4101feb9b190be4ec89b14711ac5f3ca9d71c64736f6c63430008000033",
					"opcodes": "PUSH1 0x80 PUSH1 0x40 MSTORE CALLVALUE DUP1 ISZERO PUSH2 0x10 JUMPI PUSH1 0x0 DUP1 REVERT JUMPDEST POP PUSH2 0x25E DUP1 PUSH2 0x20 PUSH1 0x0 CODECOPY PUSH1 0x0 RETURN INVALID PUSH1 0x80 PUSH1 0x40 MSTORE CALLVALUE DUP1 ISZERO PUSH2 0x10 JUMPI PUSH1 0x0 DUP1 REVERT JUMPDEST POP PUSH1 0x4 CALLDATASIZE LT PUSH2 0x41 JUMPI PUSH1 0x0 CALLDATALOAD PUSH1 0xE0 SHR DUP1 PUSH4 0x6661ABD EQ PUSH2 0x46 JUMPI DUP1 PUSH4 0xD09DE08A EQ PUSH2 0x64 JUMPI DUP1 PUSH4 0xD826F88F EQ PUSH2 0x6E JUMPI JUMPDEST PUSH1 0x0 DUP1 REVERT JUMPDEST PUSH2 0x4E PUSH2 0x78 JUMP JUMPDEST PUSH1 0x40 MLOAD PUSH2 0x5B SWAP2 SWAP1 PUSH2 0x17A JUMP JUMPDEST PUSH1 0x40 MLOAD DUP1 SWAP2 SUB SWAP1 RETURN JUMPDEST PUSH2 0x6C PUSH2 0x7E JUMP JUMPDEST STOP JUMPDEST PUSH2 0x76 PUSH2 0xDC JUMP JUMPDEST STOP JUMPDEST PUSH1 0x0 SLOAD DUP2 JUMP JUMPDEST PUSH1 0x33 PUSH1 0x0 SLOAD LT PUSH2 0xC3 JUMPI PUSH1 0x40 MLOAD PUSH32 0x8C379A000000000000000000000000000000000000000000000000000000000 DUP2 MSTORE PUSH1 0x4 ADD PUSH2 0xBA SWAP1 PUSH2 0x15A JUMP JUMPDEST PUSH1 0x40 MLOAD DUP1 SWAP2 SUB SWAP1 REVERT JUMPDEST PUSH1 0x0 DUP1 DUP2 SLOAD DUP1 SWAP3 SWAP2 SWAP1 PUSH2 0xD5 SWAP1 PUSH2 0x1B0 JUMP JUMPDEST SWAP2 SWAP1 POP SSTORE POP JUMP JUMPDEST PUSH1 0x0 DUP1 DUP2 SWAP1 SSTORE POP JUMP JUMPDEST PUSH1 0x0 PUSH2 0xF2 PUSH1 0x29 DUP4 PUSH2 0x195 JUMP JUMPDEST SWAP2 POP PUSH32 0x436F6D70746575722061747465696E74206C61206C696D697465206D6178696D PUSH1 0x0 DUP4 ADD MSTORE PUSH32 0x616C652064652035310000000000000000000000000000000000000000000000 PUSH1 0x20 DUP4 ADD MSTORE PUSH1 0x40 DUP3 ADD SWAP1 POP SWAP2 SWAP1 POP JUMP JUMPDEST PUSH2 0x154 DUP2 PUSH2 0x1A6 JUMP JUMPDEST DUP3 MSTORE POP POP JUMP JUMPDEST PUSH1 0x0 PUSH1 0x20 DUP3 ADD SWAP1 POP DUP2 DUP2 SUB PUSH1 0x0 DUP4 ADD MSTORE PUSH2 0x173 DUP2 PUSH2 0xE5 JUMP JUMPDEST SWAP1 POP SWAP2 SWAP1 POP JUMP JUMPDEST PUSH1 0x0 PUSH1 0x20 DUP3 ADD SWAP1 POP PUSH2 0x18F PUSH1 0x0 DUP4 ADD DUP5 PUSH2 0x14B JUMP JUMPDEST SWAP3 SWAP2 POP POP JUMP JUMPDEST PUSH1 0x0 DUP3 DUP3 MSTORE PUSH1 0x20 DUP3 ADD SWAP1 POP SWAP3 SWAP2 POP POP JUMP JUMPDEST PUSH1 0x0 DUP2 SWAP1 POP SWAP2 SWAP1 POP JUMP JUMPDEST PUSH1 0x0 PUSH2 0x1BB DUP3 PUSH2 0x1A6 JUMP JUMPDEST SWAP2 POP PUSH32 0xFFFFFFFFFFFFFFFFFFFFFFFFFFFFFFFFFFFFFFFFFFFFFFFFFFFFFFFFFFFFFFFF DUP3 EQ ISZERO PUSH2 0x1EE JUMPI PUSH2 0x1ED PUSH2 0x1F9 JUMP JUMPDEST JUMPDEST PUSH1 0x1 DUP3 ADD SWAP1 POP SWAP2 SWAP1 POP JUMP JUMPDEST PUSH32 0x4E487B7100000000000000000000000000000000000000000000000000000000 PUSH1 0x0 MSTORE PUSH1 0x11 PUSH1 0x4 MSTORE PUSH1 0x24 PUSH1 0x0 REVERT INVALID LOG2 PUSH5 0x6970667358 0x22 SLT KECCAK256 CALL 0x48 0x5F PUSH20 0x34B109113F7D68EBA8B4101FEB9B190BE4EC89B1 SELFBALANCE GT 0xAC 0x5F EXTCODECOPY 0xA9 0xD7 SHR PUSH5 0x736F6C6343 STOP ADDMOD STOP STOP CALLER "
				},
				"gasEstimates": {
					"creation": {
						"codeDepositCost": "121200",
						"executionCost": "165",
						"totalCost": "121365"
					},
					"external": {
						"count()": "1107",
						"increment()": "21927",
						"reset()": "5180"
					}
				},
				"methodIdentifiers": {
					"count()": "06661abd",
					"increment()": "d09de08a",
					"reset()": "d826f88f"
				}
			},
			"storageLayout": {
				"storage": [
					{
						"astId": 3,
						"contract": "Counter_For_Linea.sol:Counter",
						"label": "count",
						"offset": 0,
						"slot": "0",
						"type": "t_uint256"
					}
				],
				"types": {
					"t_uint256": {
						"encoding": "inplace",
						"label": "uint256",
						"numberOfBytes": "32"
					}
				}
			},
			"userdoc": {
				"kind": "user",
				"methods": {
					"increment()": {
						"notice": "Incrémente le compteur jusqu'à 51."
					},
					"reset()": {
						"notice": "Réinitialise le compteur à zéro."
					}
				},
				"version": 1
			}
		}
	}
}